:020000040800F2
:100000000020002071370008F5360008F736000898
:1000100000000000000000000000000000000000E0
:10002000000000000000000000000000F936000899
:100030000000000000000000FB360008FD3600084C
:10004000C1370008C1370008C1370008C1370008B0
:10005000C137000805370008C1370008C13700085C
:10006000C1370008C1370008C1370008C137000890
:10007000C1370008C137000800000000C137000880
:1000800000000000C1370008000000000000000070
:10009000C137000800000000C1370008C137000860
:1000A000C1370008C1370008C1370008C137000850
:1000B000C1370008C1370008C1370008C137000840
:1000C00010B5064C2378002B07D1054B002B02D02E
:1000D000044800E000BF0123237010BD7000002021
:1000E000000000001C3A0008044B10B5002B03D0A0
:1000F0000349044800E000BF10BDC04600000000F6
:10010000740000201C3A0008002243088B4274D37C
:1001100003098B425FD3030A8B4244D3030B8B4208
:1001200028D3030C8B420DD3FF22090212BA030C11
:100130008B4202D31212090265D0030B8B4219D3F2
:1001400000E0090AC30B8B4201D3CB03C01A524112
:10015000830B8B4201D38B03C01A5241430B8B425A
:1001600001D34B03C01A5241030B8B4201D30B0343
:10017000C01A5241C30A8B4201D3CB02C01A52416A
:10018000830A8B4201D38B02C01A5241430A8B422D
:1001900001D34B02C01A5241030A8B4201D30B0216
:1001A000C01A5241CDD2C3098B4201D3CB01C01A30
:1001B000524183098B4201D38B01C01A524143093A
:1001C0008B4201D34B01C01A524103098B4201D328
:1001D0000B01C01A5241C3088B4201D3CB00C01A95
:1001E000524183088B4201D38B00C01A524143080D
:1001F0008B4201D34B00C01A5241411A00D2014632
:10020000524110467047FFE701B5002000F006F8A4
:1002100002BDC0460029F7D076E770477047C04658
:10022000002B11D1002A0FD1002900D1002802D0C3
:100230000021C943081C07B4024802A140180290DB
:1002400003BDC046D9FFFFFF03B4684601B502985D
:1002500000F030F8019B9E4602B00CBC7047C046CF
:10026000F0B5CE46474615042D0C2E0080B5070488
:10027000140C3F0C9946030C7E435D436743634374
:100280007F19340CE4199C46A54203D980235B02F4
:100290009846C4444B46514343433604360C250C20
:1002A00024046544A4195918491920000CBC90462F
:1002B0009946F0BDF0B557464E464546DE46E0B598
:1002C000040083B00D00924699468B422FD82CD063
:1002D0004946504600F0AEF829000600200000F024
:1002E000A9F8331A9846203B9B4600D574E0534644
:1002F0005A4693401F005346424693401E00AF4269
:1003000029D826D05B46A41BBD41002B00DA79E03A
:10031000002200230092019301235A469340019347
:10032000012342469340009319E08242D0D9002233
:100330000023009201930C9B002B01D01C605D6098
:100340000098019903B03CBC90469946A246AB4642
:10035000F0BDA342D6D90022002300920193434668
:10036000002BE8D0FB0772081A4346467B080EE0D4
:10037000AB4201D1A2420CD8A41A9D4101202419FC
:100380006D410021013E24184D41002E06D0AB42A4
:10039000EED9013E24196D41002EF8D15B4600983C
:1003A000019900196941002B22DB2B005A46D340EA
:1003B0002A004446E2401C005B461500002B2CDB63
:1003C00026009E40330026004746BE403200801A79
:1003D000994100900191AEE7424620239B1A524674
:1003E000DA40414613004A468A4017001F4382E71D
:1003F000424620239B1A2A0046469A402300F34097
:100400001343D5E74246202300219B1A0022009186
:1004100001920122DA40019282E74246202326001F
:100420009B1ADE402F00B446974066463B0033439C
:10043000C9E7C04610B5002903D100F007F8203005
:1004400002E0081C00F002F810BDC0461C21012388
:100450001B04984201D3000C10391B0A984201D3A7
:10046000000A08391B09984201D30009043902A285
:10047000105C40187047C0460403020201010101EC
:100480000000000000000000FA210A4B70B589004E
:1004900005001868FFF738FE00F07AF80400012024
:1004A000002C05D102382200290000F037F8200086
:1004B00070BDC046080000204023084A10B51168EE
:1004C00000200B431360FFF7DFFF041E03D103F08E
:1004D00003F9200010BD0124FBE7C04600200240C4
:1004E000024A1368013313607047C046900400202D
:1004F000014B18687047C0469004002070B5040096
:10050000FFF7F6FF631C5A1E93410500E418FFF73E
:10051000EFFF401B8442FAD870BD000070B589011E
:10052000002814DA0F23C0B20340083B114A9B088D
:100530009B009B18032210409040FC321500114094
:1005400085408140DC69AC432143D96170BD0325FE
:1005500083082840A840FC352E00074A9B009B18C2
:10056000C02286402940814092009C58B4432143D8
:100570009950EBE700ED00E000E100E01F23184098
:100580001E3B8340014A13607047C04600E100E013
:10059000094A431E012093420DD8C021074A08484A
:1005A0005360036A09061B021B0A0B430362002007
:1005B0000723906013607047FFFFFF0010E000E02A
:1005C00000ED00E08021274A4900906930B5002302
:1005D000084205D0244802334469234343610B0099
:1005E000802091698000014205D001211E4C034307
:1005F00065692943616180209169C000014205D08D
:100600000821194C03436569294361618020916980
:100610000001014205D00421134C034365692943BD
:100620006161802091698001014205D010210E4C4A
:1006300003436569294361619169890305D52020D8
:10064000094C034361690143616180209169400263
:10065000014205D04021044C03436569294361618F
:10066000936130BD002002409404002070B5040066
:10067000FFF73EFF01250600184A13009169294241
:100680001FD102219069084200D091619A69D20578
:1006900013D49A69920510D49A6952050DD49A69B7
:1006A00012050AD49A69920407D4802298699202AA
:1006B000104002D19B69DB0308D5FFF783FF0120BF
:1006C00004E0611CDAD0002C01D1032070BDFFF7DB
:1006D0000FFF801B8442CFD2F7E7C04600200240C4
:1006E0000122094B0020596811420BD072B610004C
:1006F0009A690242FCD1054ADA60054ADA6062B6BC
:100700005B6818407047C04600200240EFCDAB89BF
:10071000050403020123044A90691840FCD1516882
:100720000B4353607047C0460020024070B505007F
:100730000A48FFF79BFF00280FD1094B094C58616D
:10074000842362689B001343636028600348FFF7BB
:100750008DFF6368044A1340636070BD50C300009E
:100760009404002000200240EFFDFFFFF8B5124D79
:1007700007002B7C0E0014000220012B0CD001235B
:100780000E482B74FFF772FF002803D16861022F17
:1007900003D1346000232B74F8BD012F02D1A4B221
:1007A0003480F7E7002F02D1E4B23470F2E7034857
:1007B000FFF75CFFEEE7C0469404002050C3000042
:1007C0008023034A5B0051680B4353607047C04667
:1007D00000200240F0B5534A0B688218541EA24113
:1007E00085B00193002305320392019ADA4001D1CA
:1007F00005B0F0BD01259D40019A2A40009200D12C
:100800008DE04A6894461022644694432200013CDD
:10081000022A1FD107240F271C40A400A740DA0892
:1008200092008218166ABE430F69A7403E431662C3
:1008300003245E00B4408268A243CC68B4402243E3
:1008400082606246D206D20F9A404468AC4322438B
:10085000426001E0012CEBD9032634005D00AC407E
:100860006246E4433240AA40076827403A430260A8
:10087000C26814408A68AA4014436246C460D20029
:100880004DD50125284C0F27626B2A431D003540AA
:10089000AD00AF406263254A9C08A400A418A2687A
:1008A000BA43A0270292FF050022B8420CD0204F85
:1008B0000132B84208D01F4F0132B84204D01E4F57
:1008C0003200B84200D0039AAA406746029D2A43EC
:1008D000A2601A4A009C1668009DE4433543FF035A
:1008E00001D435002540674615605668009D3543A4
:1008F000BF0301D435002540674655609668009DCA
:100900003543FF0201D43500254067469560D56820
:10091000009E2E43BF0201D425402E00D660013335
:1009200063E7C04600E4FFAF001002400000014052
:100930000004005000080050000C0050000401406A
:10094000F0B5374A85B082180191511E8A410023C3
:1009500005320392019ADA4001D105B0F0BD0122BF
:100960009A4094466146019A0A40009256D0032666
:10097000340059008C400268072522430260DA08DF
:1009800092008218116A1D4002910F210F00AD00E4
:10099000AF403D00E443029FAF4365461762826863
:1009A000224082604268AA434260C2681440C46028
:1009B0009A081C4C920012191C003440A400A1405B
:1009C00095680F000D40A021C9058C4600216045A7
:1009D0000FD015498C46012160450AD013498C4639
:1009E0000221604505D012498C463100604500D097
:1009F0000399A1408D4211D19168B943916000994A
:100A00000C4AC94314680C40146054680C4054608C
:100A100094680C409460D4682140D160013399E718
:100A200000E4FFAF00000140000400500008005047
:100A3000000C00500004014000690840411E88413C
:100A4000C0B27047002A01D0816170478162FCE723
:100A500043695940416170470C22184B10B5D96861
:100A60000A40082A26D00C2A06D0042A1AD11B686C
:100A7000DB0621D4124810BD8A021248120F825C94
:100A80000902D868890F0131C00304D50E485043CC
:100A9000FFF73AFBEFE71B68DB0601D50B48F6E7EB
:100AA0000748F4E780205B6800021B045B0F0133FA
:100AB0009840E0E70448DEE70448DCE70010024025
:100AC0000024F400523A000800127A0000093D00A8
:100AD000F0B5050087B0002802D1012007B0F0BDB5
:100AE0000C23BE4CE668E2681E4080235B021A407D
:100AF00001920268D20741D42B689B0700D587E09A
:100B00002B68DB0628D5002E00D0D9E023689B0592
:100B100002D5EB69002BE0D06268B1496B6A0A40EC
:100B20001A43626061682A6A0902090A12060A43C6
:100B3000626080225B0B013312029A401300E1686D
:100B400000200A06A749120F8A5CD340A64A136008
:100B5000FFF79AFC0028C1D12B681B0700D5E6E0FF
:100B60002B685B0700D508E12B689B0600D58DE15B
:100B7000AB6A002B00D0BCE10020AFE7082E04D008
:100B80000C2E09D1019A002A06D023689B03B3D505
:100B90006B68002BB0D1A0E76A689A4211D1226835
:100BA00013432360FFF7A4FC07008022236892020E
:100BB0001342A1D1FFF79CFCC01B6428F5D9032088
:100BC0008CE7A021C9028A4205D180222168D20285
:100BD0000A432260E3E721688448014021602168DC
:100BE0000B400593059B824923680B402360002A34
:100BF000D8D1FFF77DFC07008022236892021342C0
:100C000000D179E7FFF774FCC01B6428F4D9D6E75C
:100C1000EA68042E04D00C2E25D1019B002B22D192
:100C200023685B0702D5002A00D156E761682B696B
:100C300070481B0201400B430921636023688B430A
:100C400013432360FFF708FFE368664A1B061B0F88
:100C5000D35CD840644B18600020FFF715FC0028D7
:100C600000D14DE73AE72368002A18D009218B43C9
:100C700013432360FFF73CFC070004222368134260
:100C800007D062682B695B491B020A40134363600B
:100C900036E7FFF72DFCC01B0228EED98FE70122B3
:100CA00093432360FFF724FC0700042223681342C8
:100CB00000D125E7FFF71CFCC01B0228F5D97EE711
:100CC000EB69002B20D0802322685B001343236054
:100CD000FFF70EFC070080222368920013420DD01C
:100CE00063683F4A13406A6A1343636062682B6A11
:100CF00012021B06120A134363602DE7FFF7F8FB8D
:100D0000C01B0228E7D95AE723683B4A13402360F7
:100D1000FFF7EEFB0700802223689200134200D108
:100D20001AE7FFF7E5FBC01B0228F4D947E76A6919
:100D30000123002A10D0226D13432365FFF7D8FB4F
:100D400007000222236D134200D009E7FFF7D0FB12
:100D5000C01B0228F5D932E7226D9A432265FFF7BE
:100D6000C7FB07000222236D134200D1F8E6FFF70C
:100D7000BFFBC01B0228F5D921E780230021A26B0D
:100D80005B0501911A4204D1A26B1343A3630123B3
:100D900001938022194F52003B68134208D08022F1
:100DA000AB68520093422BD1226D134323654CE074
:100DB00080223B68520013433B60FFF799FB80237E
:100DC0005B00029003933B68039A1342E7D1FFF75D
:100DD0008FFB029BC01A6428F5D9F0E60010024090
:100DE000FF1FFFFF423A000808000020FFFFFEFF40
:100DF000FFFFFBFFFFE0FFFFFFFEFFFF0070004073
:100E0000002B16D1236D6A4A13402365236D694A6E
:100E100013402365FFF76CFB07008022236D9200CF
:100E200013422AD0FFF764FB634BC01B9842F4D9EE
:100E3000C5E6A021C9008B420BD18023216DDB00C8
:100E40000B432365236D1A432265FFF751FB07000F
:100E50000EE0236D564A13402365236D554A134017
:100E6000A4E7FFF745FB544BC01B984200D9A6E608
:100E70008022236D92001342F3D0019B012B00D0FE
:100E800072E6A36B4D4A1340A3636DE6A969012383
:100E90004B4A002918D0A1681943A160616B0B432C
:100EA00063638023116A9B010B431362FFF720FBEE
:100EB00007000222A368134200D059E6FFF718FB8F
:100EC000C01B0228F5D97AE6A1689943A160136A8C
:100ED0003C490B401362FFF70BFB07000222A3689B
:100EE000134200D144E6FFF703FBC01B0228F5D9EB
:100EF00065E60C2E43D0344A022B2ED1236880267F
:100F000013402360FFF7F4FA0700B6042368334266
:100F10001DD1296BEB6AE2680B432C490A4013434D
:100F20006A6B80251343E360802322685B041343CC
:100F30002360FFF7DDFA0600AD0423682B4200D0E2
:100F40001AE6FFF7D5FA801B0228F6D937E6FFF735
:100F5000CFFAC01B0228D9D931E623688025134077
:100F60002360FFF7C5FA0600AD0423682B4200D1C9
:100F700002E6FFF7BDFA801B0228F6D91FE68022A1
:100F8000E368E96A52021A4001208A4200D0A5E5CE
:100F9000F022296B92031A408A4200D09EE5C020BD
:100FA00000040340686B181A431E9841C0B295E5CF
:100FB000FFFEFFFFFFFBFFFF88130000FFFFFFEFB7
:100FC00000000140FFDFFFFFFFFFFFFEFFFF02FF0A
:100FD000F7B5061E019101D10120FEBD0122514C41
:100FE0000199236813408B4227D3326893072FD48B
:100FF000D30735D40123226801991A40914200D2C7
:1010000081E03268484C530700D584E0130706D5C9
:10101000E26833694549DB000A401343E360FFF7A8
:101020001BFDE368424A1B061B0FD35CD840414BB3
:1010300018600020FFF728FACFE72368019993434F
:101040000B43236023681340019A9A42C4D1CCE732
:10105000F0203549CB688343B0680343CB60C7E7D2
:10106000314D72682B68022A19D19B03B4D5032134
:10107000EB688B431343EB60FFF73AFA73680700A2
:10108000022B19D10C22EB681340082BB2D0FFF7CA
:101090002FFA294BC01B9842F4D903209DE7032A5D
:1010A00002D19B01E3D497E7012A02D15B07DED48A
:1010B00092E79B05DBD48FE7032B0BD10C22EB6867
:1010C0001340934296D0FFF713FA1B4BC01B984274
:1010D000F4D9E2E7012B10D00C22EB68134289D03F
:1010E000FFF706FA144BC01B9842F5D9D5E7FFF776
:1010F000FFF9114BC01B9842CFD80C22EB6813406C
:10110000042BF4D176E722689A43226022681A42BF
:1011100000D061E775E7E36808490B40F1680B43CD
:10112000E36073E70020024000100240FFC7FFFFAA
:10113000423A00080800002088130000FFF8FFFF73
:101140008223F7B502681B0105001A4247D08023AD
:1011500000215F4C5B05A26B00911A4204D1A26B87
:101160001343A3630123009380275A4E7F00336803
:101170003B426DD06968C022080023689203134087
:101180001040834203D1A8680240934209D0C02393
:101190000A009B021A409A4203D1236801209B0354
:1011A00066D4C022236D9202134062D16968C023C5
:1011B0000A009B021A409A4207D12368464803401E
:1011C000C020800301400B432360236D1A43009B22
:1011D0002265012B03D1A36B404A1340A3632B6804
:1011E000DA0706D503203A49CA6C8243E86802430D
:1011F000CA649A0706D50C203549CA6C824328690F
:101200000243CA645A0706D531493548CA6C0240C0
:1012100068690243CA641A0706D52D493148CA6C69
:101220000240A8690243CA645A0606D528492E48D6
:10123000CA6C0240286A0243CA6400201B0617D504
:10124000234A2A49D36C0B40E9690B43D3640FE06E
:1012500033683B433360FFF74BF9019033683B42FF
:1012600088D1FFF745F9019BC01A6428F6D90320FD
:10127000FEBD11408B4202D02968890608D4A968B6
:101280000A40934200D191E72B681B0500D48DE7FB
:101290008022216D206D120302432265226D144BC2
:1012A00014480B40024022652365CB0500D47DE73E
:1012B000FFF71EF980270600BF00236D3B4200D0D8
:1012C00074E7FFF715F90C4B801B9842F5D9CEE770
:1012D0000010024000700040FFFFCFFFFFFFFFEF54
:1012E000FFF3FFFFFFCFFFFFFFFFFFFBFFFFF3FF5A
:1012F000FFFFFCFFFFFFF7FF88130000F8B50400B5
:101300000D001700802623689868304031D06A1C91
:10131000FAD0FFF7EDF8C01B8542F4D8E02123682E
:101320005A688A435A6082226168520091420CD105
:101330008021A26809028A4203D08021C9008A4222
:1013400003D140211A688A431A608021A26A890168
:101350008A4206D1196807480140196019680A4392
:101360001A602300012251331A70002303205034E5
:101370002370F8BDFFDFFFFF10B50400FFF7BEFFCD
:10138000002804D020230320626D1343636510BD41
:101390007047000070B504000120002C37D00023F6
:1013A0002500A36251352B78DBB2002B05D122003A
:1013B000503213702000FFF7EBFF02234022216818
:1013C0002B700B68A06893430B606368A2690343AA
:1013D000E06803432069034360690343E069034312
:1013E000206A0343A06A0343802080001040034327
:1013F0000B600423120C1A40636A00201A434A60EF
:10140000CB69034A1340CB61012360652B7070BD2B
:10141000FFF7FFFFF0B51F00030085B001925033C6
:101420001A7804000E000225012A00D19BE0012257
:101430001A70FFF75DF82300009051331B78616844
:10144000DBB2012B0BD082225200914200D083E00C
:10145000A268002A00D07FE0042B00D07CE00125A8
:10146000002E00D178E0019B002B75D0002F73D0A7
:10147000230051331A78042A01D005221A70002360
:10148000019A6365A2634022236463642368E7874B
:10149000E7861868A7872663A786104202D11868D6
:1014A00002431A608022E068120190425ED1002956
:1014B00001D0012F07D132880236DA60E38E26632D
:1014C000013B9BB2E386012502272E00E38E002B11
:1014D00015D1E38F002B12D1009A0A992000FFF753
:1014E0004BFF051E00D087E0A368002B34D1236892
:1014F0000390DA6803929B680393039B2CE02268B5
:1015000093683B420ED0E38E002B0BD0012D09D106
:101510000025236B19880233D1602363E38E013BDE
:101520009BB2E386936833420CD0E38F002B09D043
:101530003500D268A36B1A800233A363E38F013BAB
:101540009BB2E387FEF7D4FF009BC01A0A9B83423D
:10155000BCD80133BAD003252300012251331A70BD
:10156000002350342370280005B0F0BD002901D0BD
:10157000012F08D132781A73236B01332363E38E72
:10158000013B9BB2E386012502272E00E38E002B50
:1015900002D1E38F002B9FD023689A683A420FD084
:1015A000E28E002A0CD0012D0AD10025226B127880
:1015B0001A73236B01332363E38E013B9BB2E386F3
:1015C00023689A6832420DD0E28F002A0AD0350093
:1015D000DB68A26B1370A36B0133A363E38F013B42
:1015E0009BB2E387FEF784FF009BC01A0A9B8342ED
:1015F000CCD80133CAD0AEE7202301256365ABE721
:1016000051300078C0B27047F0B507278DB003AEF7
:1016100004AD06AC30707170B27000213A00280041
:10162000019302F0FCF818220021200002F0F7F8E4
:101630003F2323804B3363800021873B2000A6603B
:10164000E3602561676100F06DFBFF22002810DB7D
:101650002A78002A0DD12B6801991B0A0B802B795F
:10166000E9781B020B4312990B806B6813991B0AD4
:101670000B8010000DB0F0BDF0B50E0097B00193D7
:101680001CAB1B7803AF02931DAB1D781FAB1C78FE
:1016900002AB991D3A802A190E8042231A2A4FDC88
:1016A0000CAE3070292002AB0222C01802F0AEF856
:1016B0002B2002AB39000222C01802F0A7F86B46BB
:1016C0001B792A0073716B461B7A1E990EA8B371A1
:1016D000F57102F09BF82B0009350833DBB2EDB24F
:1016E000F45422006419E4B22099701902F08EF8C3
:1016F0003019022221A902F089F8A01CC0B206AF5D
:10170000022222A9301802F081F8182200213800A4
:1017100002F085F804343F23E4B2FC600F243B80E0
:1017200044337B8002ABE4180123002138007B6145
:10173000BE603C6100F0F6FAFF23002800DB23784E
:10174000180017B0F0BD8C46F0B591B01F0016AB75
:101750001E7817AB1D7819AB1B7809AC0193634653
:1017600020701E20637002AB1100C018102202F01E
:101770004DF85821312202ABD2185B181B78257521
:101780001370189B03AD1B0A5370189B00211B0C90
:101790009370189B28001B0ED3706B461B79182280
:1017A0006376A774E67402F03AF83F232B80473340
:1017B0006B806C3BEB6002ABAC60DC1C0123002156
:1017C00028006B612C6100F0ADFAFF23002800DBDC
:1017D0002378180011B0F0BD70B5422390B0050019
:1017E0001F2821D808AE02003070212002AC6844C6
:1017F00002F00CF818220021200002F010F83F231C
:1018000023804F3363806B460135EDB2E560DD1D0B
:101810000123002120006361A660256100F082FAA7
:10182000FF23002800DB2B78180010B070BD30B506
:1018300089B002AC18220021200001F0F0FF3F2304
:1018400023800223FF3363806B46DD1D01230021CB
:1018500020006361256100F065FAFF23002800DBAA
:101860002B78180009B030BDF0B58DB001AF16006F
:101870001C0038700225012800D00E356B462A0066
:10188000581D01F0C3FF6B1CFE540326AB1CFC5417
:10189000320006AC0021684601F0C1FF1822002189
:1018A000200001F0BCFF3F232380C33363806B46DD
:1018B000AD19002120002361A760E560666100F09A
:1018C00031FAFF23002807DB6B461B78002B03D17E
:1018D000009A1299120A0A8018000DB0F0BDF0B5F6
:1018E00093B01F0018AB1E7819AB1B780BAD00939B
:1018F0001AAB1B78944601931BAB1B78288002938C
:101900001CAB1B78A97003930224012900D00E346C
:101910001F2004AB61462200C01801F077FF6A4621
:10192000E31CEF541278231DEE54631DEA546A46FB
:101930001279A31DEA546A46127AE31DEA546A46F4
:101940000327127B013305AEEA5400213A0004A8B4
:1019500001F065FF18220021300001F060FF3F23F5
:101960003380C5337380093404AB00213000336108
:10197000B560F460776100F0D5F9FF23002807DB3C
:1019800004AB1B78002B03D1049A1D99120A0A801C
:10199000180013B0F0BD70B51D00A8B042237A2D19
:1019A00025DC08AE3080262002AC718032712C9983
:1019B0002A006844757101F029FF182200212000D7
:1019C00001F02DFF3F232380C73363806B4606352C
:1019D000EDB2E560DD1D0123002120006361A660FA
:1019E000256100F09FF9FF23002800DB2B78180009
:1019F00028B070BD70B5A8B02CAC25784224792DE4
:101A000026DC08AE3080272002AC718032712D991F
:101A10002A0068447371B57101F0F8FE18220021A4
:101A2000200001F0FCFE3F232380E73363806B46F8
:101A30000735EDB2E560DD1D012320000021A66021
:101A40002561636100F06EF9FF24002800DB2C782B
:101A5000200028B070BD30B589B002AC01AD28803F
:101A600018220021200001F0DAFE3F2323802823E2
:101A7000FF336380263BFF3BE3606B46A560DD1CC4
:101A80000123002120006361256100F04BF9FF2351
:101A9000002800DB2B78180009B030BD70B5422358
:101AA0000D00A8B011007E2D22DC08AE307022207F
:101AB00002AC2A006844757001F0A8FE18220021CB
:101AC000200001F0ACFE3F232380333B63806B4654
:101AD0000235EDB2E560DD1D0123002120006361C8
:101AE000A660256100F01EF9FF23002800DB2B789B
:101AF000180028B070BD30B589B002AC01AD2870B7
:101B0000697018220021200001F089FE3F23238004
:101B1000303B63800D3BE3606B46A560DD1C012319
:101B2000002120006361256100F0FCF8FF230028FC
:101B300000DB2B78180009B030BDF0B50A270E2560
:101B4000092285B06F446D4406000C00009503AB7C
:101B50006A44390002A800F02CF8C0B200280BD16A
:101B60000F213B881A0A32702A881B0211400B434E
:101B7000F0210A401343238005B0F0BD30B589B091
:101B800002AC18220021200001F049FE032323802B
:101B900063806B46DD1D0123002120006361256108
:101BA00000F0C0F8FF23002800DB2B78180009B0F4
:101BB00030BDF0B509268FB005AC08AD0191029299
:101BC0000021320007002000039301F028FE1822B4
:101BD0000021280001F023FE042300212B8028008F
:101BE000033B6B802C616E6100F09CF80300FF20CA
:101BF000002B14DB2078002811D16378019A3B7008
:101C0000638813802379029A13706368039A1B0A0E
:101C10001380237AE2791B021343149A13800FB0C6
:101C2000F0BD70B5060090B008AD20220C00280071
:101C3000002101F0F4FD2E70321C1F2E00D91F224E
:101C400021202100D2B202AC684401F0DFFD18224D
:101C50000021200001F0E3FD08232380013363808D
:101C60001733E3606B46A560DD1D012300212000D2
:101C70006361256100F056F8FF23002800DB2B7814
:101C8000180010B070BD000013B50400200000F073
:101C90006CF9002800D013BD01A9200000F0A5F9BF
:101CA0000199024800F06CF9F0E7C046B404002046
:101CB00070B5002801D0104BD86100F0A7FA0F4D85
:101CC000280000F04FF90E4800F04CF9AF230D4CFE
:101CD0009B00E618210028008C3400F05DF9B44226
:101CE000F8D1054C2368002B01D000209847A36849
:101CF000002B00D0984770BD8C000020AC04002061
:101D0000B4040020AC000020054B02681A60C268D1
:101D1000DA6002691A6182699A6182689A60704722
:101D20008C000020F0B54388A7B00093038804001E
:101D30000193002304A80F00039300F013F95D4DF5
:101D4000280000F064F901285BDD638822889B0588
:101D500092029B0D1343012206AE327002A910328B
:101D60005218257B9BB213701B0A5370A168F57043
:101D70002A0007A801F04AFD4F4B1B69002B02D037
:101D8000291D30009847002087427ED1009B9D0589
:101D9000019BAD0D9B021D43ADB2FEF7A9FB0700F1
:101DA000FEF7A6FBFA23C01B9B00984251D8434E76
:101DB000300000F0DAF80028F2D103A9300000F07A
:101DC00002F9039B1A7A042A09D11A008832127880
:101DD000597AD01E0F292ED01CD80E2957D0354F36
:101DE000380000F0C2F8002861D0300000F0BDF8E3
:101DF00000285CD03800039900F0CEF8002303934C
:101E0000CBE706A92D4800F0DEF80699280000F07F
:101E1000C3F894E710291CD03E29E0D1D97A606834
:101E20008142DCD16169043A8A4200D90A006261C8
:101E300020690C3339E019000B31CA788F7812020F
:101E40003A43954205D162680F2A0ED0DB7A002B07
:101E5000C5D00399002902D0164800F091F804A8D3
:101E6000FFF712FF012040420FE06269824200D971
:101E700002002069626101F0C9FC03990D4800F07D
:101E80007FF804A8FFF700FF002027B0F0BD597BC2
:101E90001E7B090231438D42DBD16169063A8A42D9
:101EA00000D90A00206962610E331900E3E7039943
:101EB00004A8A1E7AC0400208C000020B40400209A
:101EC000002313B501930B4C200000F04EF80028BE
:101ED00000D013BD01A9200000F075F8064BDB69A6
:101EE000002B02D00198083098470199034800F070
:101EF00053F8E8E7B40400208C000020AC04002074
:101F0000002313B5144C0193200000F02EF8002894
:101F10001DD101A9200000F056F8104BDB68002B02
:101F200015D00198802108309847C3B20199002B41
:101F30000ED00A00883213700B7A042B08D1C0B27D
:101F40008B7A0338834203D1054800F025F813BD8E
:101F5000200000F015F8FAE7AC0400208C00002007
:101F6000B4040020006040607047EFF3108372B645
:101F70000268101A41424141C8B283F31088704789
:101F8000EFF3108372B6026848600A6001600A6865
:101F9000516083F310887047EFF3108372B6426884
:101FA00008604A6041604A68116083F31088704796
:101FB000EFF3108372B601684268116001684A60ED
:101FC00083F31088704770B50D00EFF3108472B67C
:101FD00003680B600068FFF7EBFF00232A681360BB
:101FE0002A68536084F3108870BD70B50D00EFF35C
:101FF000108472B643680B604068FFF7D9FF002376
:102000002A6813602A68536084F3108870BDEFF368
:10201000108172B600230268824203D181F31088D6
:102020001800704701331268F6E7000070B501250B
:10203000A0260024144B86B0DA6AF6052A43DA6239
:10204000DB6A01A92B400093009B104B30000293E8
:1020500001950394FEF7BEFB802301A95B003000CD
:102060000193029503940494FEF7B4FB022301A9A3
:1020700030000193029503940494FEF7ABFB01F04A
:10208000A7FA06B070BDC046001002400000111053
:1020900010B5A024E40520000121FEF751FC20002A
:1020A0000221FEF74DFC802120004900FEF748FC8C
:1020B000002010BD70B58025A0246D00E405290026
:1020C00000222000FEF7BEFC0520FEF717FA2900CB
:1020D00001222000FEF7B6FC0520FEF70FFA0020D3
:1020E00070BDF0B589B000250190FF23A02002AAA1
:1020F00004AC9371C005F43B2A0006AE0F00022128
:1021000023706570A570E5702571FEF79BFC2000BB
:102110000522310001F028FA33782C00022B0DD172
:102120003279F37812021343AB4207D01E1CBB4234
:1021300000D93E1C0024B6B2B44208D3A02001222C
:102140000221C005FEF77EFC200009B0F0BD02AB05
:10215000DD1D0122981D290001F006FA2B78019A55
:1021600013550134E4B2E7E70A23F0B587B002AAB9
:102170001370002301900E0053709370D37013718D
:10218000FEF7B6F902270090A020012400223900B2
:10219000C00504ADFEF756FC0522290002A801F097
:1021A000E3F92B786442022B08D16B78B34216D343
:1021B00032000E49019801F0D7F90024A020012235
:1021C0003900C005FEF73EFCFEF792F9009BC01AED
:1021D0000F2807D8002CD7D1200007B0F0BD02246B
:1021E0006442EBE703246442F6E7C046680300203C
:1021F00010B5A024E40501212000FEF71DFC0128F4
:1022000000D010BD0020FFF77BFEF4E710B5124BA5
:1022100088B00193114B01A80293114B0593114B08
:102220000493114B0393114B0793FFF76DFDC021EE
:102230000F4CC904200001F036FA0E4A002120009C
:1022400001F02AFA002205201100FEF767F90520A7
:10225000FEF794F908B010BD2D2000089120000869
:1022600069210008E3200008B52000089135000826
:10227000BC040020F121000870B5274D01386B8D9A
:1022800092B083421CD100F03DFF002818D0FEF729
:102290002FF9224B03AE1860214B00241B78012B31
:1022A00014D100F071FF0023C356335501343C2C88
:1022B000F7D1698DE888230000960022FFF76BFBB9
:1022C000184B1888FFF7C7FB12B070BD022B07D15F
:1022D00000F05AFF4378335501343C2CF8D1E8E73D
:1022E000032B07D100F050FFC388335302343C2C3A
:1022F000F8D1DEE7042B07D100F046FF8388335383
:1023000002343C2CF8D1D4E700F03EFF438833532D
:1023100002343C2CF8D1CCE70C05002070040020DE
:10232000740400206804002010B5FEF7E1F801F005
:102330007FFA274C2378012B48D10023237001F02A
:10234000A5FA0A220023C117FDF78AFF214A0023BC
:10235000FDF766FF0F30607001F098FA2822002325
:10236000C117FDF77DFF1B4A0023FDF759FFF52339
:102370009B00C018208101F089FA14220023C117A4
:10238000FDF76EFF134A0023FDF74AFF9130FF303F
:10239000A08001F07BFA3C220023C117FDF760FF0B
:1023A0000C4A0023FDF73CFF1430A07101F06EFAD7
:1023B00064220023C117FDF753FF064A0023FDF7EF
:1023C0002FFF012378306080A37510BD0123B5E78E
:1023D000E4040020FFFFFF7F13B5214B214C0022B6
:1023E000A189608800930323FFF7D5FA021E35D137
:1023F0001D4BE189608800930323FFF7CCFA021E8E
:102400002CD11A4BE18A608800930423FFF7C3FAAA
:10241000021E23D1164B618A608800930423FFF7C4
:10242000BAFA021E1AD1134BA18A608800930323C3
:10243000FFF7B1FA021E11D10F4B218A6088009379
:102440000423FFF7A8FA021E08D10C4B618BA08869
:1024500000930323FFF79FFA002800D0472016BD02
:10246000E40400200C050020E5040020EC0400201A
:10247000E8040020EA040020E6040020F004002024
:1024800013B51E4B1E4C0022218BA0880093042301
:10249000FFF781FA1B4BA18BA08800220093032336
:1024A000FFF779FA184BE18BA088002200930423F0
:1024B000FFF771FA154B218CA088002200930423AA
:1024C000FFF769FA124B618CA08800220093032366
:1024D000FFF761FA0F4BA18CA08800220093042320
:1024E000FFF759FA0C4B618BA0880022009303235D
:1024F000FFF751FA0122094B9A7513BDEE04002033
:102500000C050020F1040020F2040020F404002057
:10251000F6040020F8040020F0040020E404002069
:1025200070B50A2592B009AE2A002449300001F0A6
:102530006DF90223742200210CAC2370DB18A37008
:102540000533237143336371053BA3710C33E3718E
:10255000253B2372237302336373293BA373F83340
:102560006272E373123A164BA272313AE2721A782F
:102570006570E57022745A78080062749A78A274C3
:10258000DA78E2741A7922755B796375FFF749FB93
:102590000020F022C8210123D2000690059004906B
:1025A0000390029601950090C900FFF765F821009D
:1025B0001620FFF711F912B070BDC046343A00087A
:1025C000C4040020A123F0B5F14D87B02B709C23EB
:1025D0006B704523AB700A23EB7080232B714D2366
:1025E0006B717E23AB718623EB71F3232B72422335
:1025F0006B720523AB72CA23EB72D5232B73EE23C8
:102600006B733623AB737D23EB73E24B0122009394
:10261000290013230220FFF727F9031E00D084E3CB
:102620005322DD4C832622700A3262703E22A27051
:10263000C132E270473A6271523AA2719522E27158
:10264000173A2272482262727822A272CB22E27278
:102650002B322273A03A62730922A273BC32E27356
:10266000CE4A26715088CE4A102705920422049340
:102670000292019303970333009722000221FFF790
:102680002EF9031E00D050E320222270093A627016
:10269000083AA2708D32E27016222271ED22627128
:1026A0006C3AE271203222724D226272A022A27232
:1026B0004322E272A8322273BA3AA273B322A671FD
:1026C000E273813EB54A66735088B64A0493059218
:1026D00004220193029203330397009722003100F2
:1026E000FFF7FDF8031E00D01FE3772222700132AE
:1026F00062704F22A2708E22E2707B2222717E32A3
:1027000062715C3AA2710A3AE27124322272472263
:1027100062727A32A272213AE272E92222731422A0
:1027200062739C32A273453AE2739C4A310050882E
:102730009D4A049305920422019302921300039789
:1027400000972200FFF7CBF8031E00D0EDE22C2209
:102750002270CE326270EE3AA2702632E2702C3ACB
:1027600022714B226271AA22A2718F22E2712D3254
:102770002272763A62727932A2720E32E272D21903
:102780002273133A62731F22A2732F32E273834AB9
:1027900031005088854A04930592042201930292E5
:1027A0001300039700972200FFF799F8031E00D04B
:1027B000BBE28E222270A02262700A22A27019222D
:1027C000E27078322271143262719722A271133250
:1027D000E271B7222272442262724732A2721B3225
:1027E000E272133222731C2262731532A2734E22DC
:1027F000E2736A4A310050886D4A049305920422BC
:10280000019302920333039700972200FFF767F8C2
:10281000031E00D089E2AA222270A52262705D22E6
:10282000A270B922E2708C2222713B326271C13AED
:10283000A2719022E271303A2272183A62727322C7
:10284000A272E922E272992222731B3A62736B220E
:10285000A2736622E273514A31005088554A0493AC
:10286000059204220193029213000397009722001D
:10287000FFF735F8002800D057E2A2232B70063B63
:102880006B704523AB700A23EB7080232B714D23B3
:102890006B717E23AB718623EB71F3232B72422382
:1028A0006B720523AB72CA23EB72D5232B73EE2315
:1028B0006B733623AB737D23EB733F4B0122009385
:1028C000290016233000FEF7CFFF031E00D02CE2B4
:1028D00069222270133A6270B122A2707222E270F1
:1028E0007322227166226271BB22A2718E22E27172
:1028F000822222724F2262723F22A2724B22E27225
:1029000004222273C22262736C222825A273234AF6
:10291000E5739088294A04930592062201930A33AD
:10292000029200930397063B22003100FEF7D7FF87
:10293000031E00D0F9E16A222270143A6270B122BB
:10294000A2707222E2707322227166226271BB222F
:10295000A2718E22E271822222724F2262723F2283
:10296000A2724B22E27204222273C22262736C2290
:10297000A2730A4AE5739088114A049305920622CD
:1029800001930A33029200930397073B220019E058
:10299000FC0400200E050020CA0400200C050020C5
:1029A000180500201A0500201C0500201E05002027
:1029B000200500202205002010050020240500200D
:1029C000280500203100FEF78AFF002800D0ACE186
:1029D0006E23D74C0C3F23704333A3707223E370F4
:1029E0007323237166236371BB23A3718E23E37169
:1029F000822323724F2363723F23A3724B23E3721C
:102A0000C223637328235436E3734435C94B66707D
:102A10002773A5739888C84B10220593002303924F
:102A200004930A3A01930A330292009322003B0076
:102A30000221FEF754FF031E00D076E1B122A270FE
:102A40007222E2707322227166226271BB22A2712D
:102A50008E22E271822222724F2262723F22A27281
:102A60004B22E272C22262732822E273B14A2570BD
:102A700066702773A5739088B04A0493059210225C
:102A8000019303920A330A3A0292009322003B0018
:102A90000221FEF724FF031E00D046E16D222270C2
:102AA0004432A2707222E270732222716622627135
:102AB000BB22A2718E22E271822222724F226272A6
:102AC0003F22A2724B22E272C22262732822E27378
:102AD000984A66702773A5739088994A0493059263
:102AE0001022019303920A330A3A029200932200C1
:102AF000073B0221FEF7F3FE031E00D015E16B2217
:102B000022704632A2707222E27073222271662213
:102B10006271BB22A2718E22E271822222724F2246
:102B200062723F22A2724B22E272C2226273282298
:102B3000E273804A66702773A5739088814A049374
:102B400005921022019303920A330A3A02920093EB
:102B500022003B000221FEF7C2FE031E00D0E4E08B
:102B60006F2222704232A2707222E27073222271AE
:102B700066226271BB22A2718E22E27182222272CF
:102B80004F2262723F22A2724B22E272C222627311
:102B90002822E273674A66702773A57390886A4A91
:102BA000049305921022019313000392009202975E
:102BB0000D3B22000221FEF792FE002800D0B4E077
:102BC0009623624948350B7050334B708723CB7086
:102BD000F4238B71B823CB7182230B7240234B7289
:102BE000AF238B72B723CB7290230B73A5234B7348
:102BF00042238B73AD23CB73554B42368E700D71D0
:102C00004D710122009302300A23FEF72DFE031EB0
:102C100000D08AE0972222704F3262708722E270E1
:102C2000F422A271B822E2718222227240226272E0
:102C3000AF22A272B722E27290222273A52262739F
:102C40004222A273AD22E2733A4AA67025716571E1
:102C5000D088404A049305921022019303920A33CC
:102C60000A3A029200932200073B0221FEF737FE48
:102C7000031E5AD1E62262708722E270F422A2710A
:102C8000B822E2718222227240226272AF22A272C4
:102C9000B722E27290222273A52262734222A273AB
:102CA000AD22E273234A2670A67025716571D08823
:102CB000294A0493059210220293039201930092F1
:102CC0003B0022000221FEF70AFE031E2DD19922AD
:102CD00022704D3262708722E270F422A271B82213
:102CE000E2718222227240226272AF22A272B72265
:102CF000E27290222273A52262734222A273AD2255
:102D0000E2730C4AA67025716571D088134A0221BE
:102D100005921022049303920193029700913C3391
:102D20002200FEF7DCFD002800D0472007B0F0BDF0
:102D3000CA0400200C0500202A0500202C050020D4
:102D40002E0500203005002026050020FC04002070
:102D50001205002032050020340500203605002031
:102D600030B5002087B000F06DFC00212A48FEF746
:102D70009FFF1621152069446844FEF7DEFEFEF72A
:102D8000FDFE6420FDF7BAFBAC21DC23234A0020C2
:102D90001170917011715370D3705371A639FEF791
:102DA0007DFE002800D0FEE7FEF741FD011E00D0A9
:102DB000FEE71B4B1B4C01931B4B0322009301208E
:102DC0002300FEF721FC021E00D0FEE7174B2189ED
:102DD000208800930323FEF7DEFD011E00D0FEE7EE
:102DE000134B0124029310230190009302000394DB
:102DF000093B2000FEF7A7FC002800D0FEE7FFF704
:102E0000E1FB051E00D0FEE707212000FEF773FE60
:102E1000084B1D6007B030BD89300008C404002095
:102E2000160500200C050020140500203E3A00087D
:102E300040E20100780400201FB50F4B1A780F4BB9
:102E4000013A012A14D804221A8038325A801B68A9
:102E5000002203930A4B198DD88803AB00930423F7
:102E6000FEF799FDFDF744FB064B186005B000BD69
:102E700008221A801632E9E774040020E0040020DA
:102E80000C0500207004002070B5254C2378002B21
:102E900005D0FFF745FB00232370FFF7F1FA002070
:102EA00000F0F2FB1F4B1B68002B32D0FDF720FB1C
:102EB0001D4D1E4C2B686289C01AFA239B00534398
:102EC000984209D9A37D002B06D0FFF785FA00238D
:102ED000A375FDF70DFB286000F014F9002817D04A
:102EE000FDF706FB124B1B68C01A124B984201D922
:102EF00000F036F9104C2368002B09D0FDF7F8FAE2
:102F00002368C01A142803D9FFF796FF0023236013
:102F100070BD00F0F7F80028FAD000F021F9F7E7CB
:102F200000000020DC04002078040020E4040020DD
:102F300070040020204E00006C04002010B5FFF744
:102F4000A3FFFEF7BDFF10BD00230121034A13605C
:102F5000034A1170034A13707047C046DC04002016
:102F6000000000207C040020034B10B51B88002BC0
:102F700001D0FFF781F910BD68040020F0B5394F8A
:102F800085B03B88060003911500002B54D0364ACB
:102F9000431E118B99420AD12A883449531E9BB291
:102FA0008B425AD8324B5A8100231C003CE0918B53
:102FB0008B4207D10023EB569AB2642A4DD82C4A93
:102FC0005373F1E7D18B8B4206D12B88294A934268
:102FD00043D8274AD381E7E7118C8B4206D12B884F
:102FE000244A934239D8224A1382DDE7518C8B421E
:102FF00005D12B78652B30D81D4A9374D4E7918C7A
:103000008B4206D12B881C4A934226D8184A9382B9
:10301000CAE7D28C934223D12C78184B1C70002C19
:103020000CD100F09DF82300039A388831000092FB
:1030300001952200FEF7DEFC05B0F0BD013C142333
:10304000042C0BD800F076F8FDF752FA0C4B186000
:10305000FDF74EFA0B4B1860A6E712230124E3E7B5
:103060001023FBE7680400200C0500205702000035
:10307000E404002010270000B80B000074040020B6
:10308000700400206C040020037810B5042B08D1D4
:1030900043783E2B06D0FF2B10D0052B01D1FFF734
:1030A00053FF10BDC278012AFBD1837941791B02FD
:1030B0000B4310490A60104A1380F2E70379C27883
:1030C0001B0213430D4A93420AD00D4A9342E8D1A2
:1030D000C3790530C07800021843FFF745FFE0E7E9
:1030E0000200C479417A007A0A3200022043FFF7D5
:1030F00045FFD6E7DC04002068040020130C000024
:10310000140C0000014B18787047C046520500208F
:1031100010B5064CFDF7E4FA2000FDF707FBFDF7BC
:10312000F9FA034B04349C42F4D110BD00000808A6
:1031300000080808074B1978002908D101221A70E5
:10314000054B1B889B18054AF02B01D9118070474D
:103150001380FCE7520500203805002048050020B8
:103160000022014B1A70704752050020044B984210
:1031700002D8044BC058704701204042FBE7C046CC
:10318000FF07000000000808F7B5154B154C1B7829
:10319000012B1ED1144E3388DD0028003C300193F2
:1031A000FFF7E4FF114F030A38602070000C6080C5
:1031B000280040306370FFF7D9FF019B3860A08082
:1031C0000133000CE080F02B00D900233380200075
:1031D000FEBD002323706370E380A3806380F6E765
:1031E000520500204A050020480500204405002023
:1031F000084B70B505000C0099420AD8FDF770FA2B
:10320000002806D1044B2A00E118FDF7AFFAFDF7BC
:1032100081FA70BDFF07000000000808094B70B577
:1032200005000C0099420BD8FDF75AFA002807D187
:10323000054B2A00E1180130FDF798FAFDF76AFA0C
:1032400070BDC046FF07000000000808094B70B5BC
:1032500005000C0099420BD8FDF742FA002807D16F
:10326000054B2A00E1180230FDF780FAFDF752FA0B
:1032700070BDC046FF0700000000080870B50400DC
:10328000FDF79EFA114B124D1B68A34203D1114B5F
:103290001B78002B17D1FFF73BFF00210120FFF720
:1032A000A7FF04212000FFF7D1FF08210020FFF72E
:1032B000B5FF00232B800023074A1370074A1360D1
:1032C000074B1C6070BD074B1B88F3E70400080820
:1032D0003805002000000808520500208004002066
:1032E000040000200800080870B5144B1A78002A62
:1032F00021D1134C23880133F02B1DD92280208843
:103300000821FFF78BFF25880E4EED0029000E4C9B
:1033100033783C31237073786370738863802068DE
:10332000FFF794FF2900B38840312380F38863803E
:103330002068FFF78BFF70BD2380E0E75205002077
:10334000380500203A0500204405002010B5FDF79F
:10335000CFF80C4C2368C01A0B4B1B68984210D94D
:103360000A4A0B4B51781970917959701189D9809B
:103370009188998052885A80FFF7B6FFFDF7B8F818
:10338000206010BD8004002004000020E404002020
:103390003A0500200222FA21064B89005A810022B8
:1033A00019825A211A731E325A73034A9974DA81A8
:1033B0009A827047E4040020B80B000001210D221E
:1033C000104B59569A5691420FDC5988DA8991422E
:1033D0000BD899881A8A914207D899799A7C914298
:1033E00003D819899A8A914206D9197B01220029AA
:1033F00000D19A751A7370471A7B012A00D19A7509
:103400000022F7E7E404002010B59CB03822002128
:103410000EA800F004FA14220021684600F0FFF91B
:103420002422002105A800F0FAF91349134A0B6879
:1034300000241A4080231B0113430B6010230E93BA
:103440000F3B1593A0230EA81B02179316941894F4
:10345000FDF73EFB0F232100684600930194029480
:1034600003940494FDF7B4FD022305A80593099481
:10347000FDF766FE1CB010BD00700040FFE7FFFFC7
:1034800070B58AB0FDF718F8FFF7BEFF14220021CF
:1034900005A800F0C4F904202E4B0125D96A912615
:1034A0000143D962DA6A760002400192019AD96A30
:1034B0007C300143D9620221DA6A00240240A02054
:1034C0000292029ADA6AC0052A43DA62DA6A2A406C
:1034D0000392039ADA6A0A43DA62DB6A00220B403B
:1034E00004933100049BFDF7ADFA80239B01059303
:1034F000194B05A9194806930794FDF76BF9A0200D
:10350000174B05A9C005069305950794FDF762F9C9
:10351000A02005A9C0050596069507940894FDF717
:1035200059F9220021000520FCF7F8FF0520FDF7DE
:1035300025F8FFF715FC0B48FFF7A0FEFFF72AFF61
:10354000FEF7F2FEFFF73AFFFFF7F8FCFFF7FEFE8B
:10355000F6E7C046001002400000211000080050AD
:103560000000111010270000FA2313B59B0014006F
:10357000009313000A0001000448FDF74BFF0028E8
:1035800001D1200016BD06204042FBE75405002073
:1035900010B5FCF7ADFF10BD0C4B10B503608223D6
:1035A0005B0043608022002392008360C36003615C
:1035B0004361C3610362436283620733C362826112
:1035C000FDF7E8FE431E9841C0B210BD0030014037
:1035D000F0B5184D184B87B028002B60FEF710F897
:1035E000041E02D0002007B0F0BD8023134A5B0107
:1035F000516B02270B43536303900590A020C02317
:10360000032601A9C005019302970496FDF7E2F88D
:1036100008230B4801A9019302970394049605948B
:10362000FDF7D8F82800FFF7B7FF0028DAD0082008
:103630004042D8E75405002000300140001002400D
:1036400000040050012330B5A02420250D4A87B086
:10365000D16AE4051943D162D26A01A91A400092E5
:10366000029303932000DB18009A04930195FDF761
:10367000B1F8200000222900FDF7E4F9002007B08E
:1036800030BDC04600100240A02010B5C00520216A
:10369000FDF7DEF9002010BD002902D142600800CC
:1036A00070470120FCE70123002801D000230160BE
:1036B000180070471F22036810B51A400123934079
:1036C000044A5169194204D053614368002B00D069
:1036D000984710BD000401400122054B596B0A4375
:1036E0005A638022996B52050A439A637047C04619
:1036F000001002407047FEE77047704710B5FCF7B6
:10370000EFFE10BD10B50248FFF7D4FF10BDC04654
:10371000BC0400208022104B520019680A431A6032
:10372000DA680E490A40DA601A680D490A40012138
:103730001A609A688A439A601A680A490A401A60AD
:10374000DA6809490A40DA6000221A618022074BD0
:1037500012059A607047C046001002400C40FF8876
:10376000F6FFF6FEFFFFFBFFFFFF02FF00ED00E0AC
:103770000D488546002103E00C4B5B584350043153
:103780000B480C4B42189A42F6D30B4A02E0002336
:1037900013600432094B9A42F9D3FFF7BBFF00F0E4
:1037A00011F8FFF76DFEFEE7002000206C3A0008DC
:1037B000000000207000002070000020B0050020F4
:1037C000FEE7000070B500260C4D0D4C641BA410E4
:1037D000A64209D1002600F021F90A4D0A4C641BCB
:1037E000A410A64205D170BDB300EB58984701362E
:1037F000EEE7B300EB5898470136F2E7643A000869
:10380000643A0008643A0008683A0008002310B5DA
:103810009A4200D110BDCC5CC4540133F8E70300D8
:103820008218934200D1704719700133F9E7000004
:10383000104B70B51C680500A36B002B15D1182028
:1038400000F060F80C4BA06303800C4B0122438016
:103850000B4B83800B4BC3800B4B038105234381B0
:10386000063383810023026143610022A36B1D6143
:103870005A6170BD0C0000200E330000CDABFFFF7D
:10388000341200006DE6FFFFECDEFFFF154B10B5B4
:103890001C68A36B002B15D1182000F033F8124BD5
:1038A000A0630380114B01224380114B8380114B95
:1038B000C380114B03810523438106338381002399
:1038C00002614361A46B0D4A206961690C4BFCF7EE
:1038D000C7FC012200238018594120616161480022
:1038E000400810BD0C0000200E330000CDABFFFFE0
:1038F000341200006DE6FFFFECDEFFFF2D7F954CDC
:103900002DF4515810B5034B0100186800F004F86D
:1039100010BDC0460C000020032370B5CD1C9D4394
:10392000083506000C2D1ED20C25A9421DD83000EA
:1039300000F062F8254A14682100002919D1244CAE
:103940002368002B03D1300000F044F820602900E8
:10395000300000F03FF8431C2CD10C2330003360C2
:1039600000F04BF803E0002DDFDA0C233360002079
:1039700070BD0B685B1B1AD40B2B03D90B60CC18E2
:10398000256003E08C420ED163681360300000F0C4
:1039900034F8200007220B30231D9043C31AE7D0D0
:1039A0005A42E250E4E74B6863600C00EEE70C001B
:1039B0004968C2E70323C41C9C43A042E0D0211AFB
:1039C000300000F007F8431CDAD1C6E78404002079
:1039D00088040020002370B5064C05000800236011
:1039E00000F00CF8431C03D12368002B00D02B609F
:1039F00070BDC046AC05002070477047054B020003
:103A00001968002901D104491960186882181A60E0
:103A10007047C0468C040020B0050020F8B5C046B1
:103A2000F8BC08BC9E467047F8B5C046F8BC08BC58
:043A30009E467047F7
:103A3400094C47532E7462312E304C47530000001A
:103A44000000000000000102030406070809030443
:083A540006080C1018203000D8
:083A5C0058C8FF7F01000000C3
:043A6400E90000086D
:043A6800C100000891
:103A6C0001000000FFFFFFFF0000200010000020FD
:103A7C00000000000000000000000000000000003A
:103A8C00000000000000000000000000000000002A
:103A9C00000000000000000000000000000000001A
:103AAC00000000000000000000000000000000000A
:103ABC0000000000000000000000000000000000FA
:103ACC0000000000000000000000000000000000EA
:040000050800377147
:00000001FF
