:020000040800F2
:1000000000200020D5290008592900085B29000894
:1000100000000000000000000000000000000000E0
:100020000000000000000000000000005D29000842
:1000300000000000000000005F290008612900089E
:10004000252A0008252A0008252A0008252A000854
:10005000252A000869290008252A0008252A000801
:10006000252A0008252A0008252A0008252A000834
:10007000252A0008252A000800000000252A00087B
:1000800000000000252A0008000000000000000019
:10009000252A000800000000252A0008252A00085B
:1000A000252A0008252A0008252A0008252A0008F4
:1000B000252A0008252A0008252A0008252A0008E4
:1000C00010B5064C2378002B07D1054B002B02D02E
:1000D000044800E000BF0123237010BD6C00002025
:1000E00000000000802C0008044B10B5002B03D04A
:1000F0000349044800E000BF10BDC04600000000F6
:1001000070000020802C0008002243088B4274D32A
:1001100003098B425FD3030A8B4244D3030B8B4208
:1001200028D3030C8B420DD3FF22090212BA030C11
:100130008B4202D31212090265D0030B8B4219D3F2
:1001400000E0090AC30B8B4201D3CB03C01A524112
:10015000830B8B4201D38B03C01A5241430B8B425A
:1001600001D34B03C01A5241030B8B4201D30B0343
:10017000C01A5241C30A8B4201D3CB02C01A52416A
:10018000830A8B4201D38B02C01A5241430A8B422D
:1001900001D34B02C01A5241030A8B4201D30B0216
:1001A000C01A5241CDD2C3098B4201D3CB01C01A30
:1001B000524183098B4201D38B01C01A524143093A
:1001C0008B4201D34B01C01A524103098B4201D328
:1001D0000B01C01A5241C3088B4201D3CB00C01A95
:1001E000524183088B4201D38B00C01A524143080D
:1001F0008B4201D34B00C01A5241411A00D2014632
:10020000524110467047FFE701B5002000F006F8A4
:1002100002BDC0460029F7D076E770477047C04658
:10022000002B11D1002A0FD1002900D1002802D0C3
:100230000021C943081C07B4024802A140180290DB
:1002400003BDC046D9FFFFFF03B4684601B502985D
:1002500000F030F8019B9E4602B00CBC7047C046CF
:10026000F0B5CE46474615042D0C2E0080B5070488
:10027000140C3F0C9946030C7E435D436743634374
:100280007F19340CE4199C46A54203D980235B02F4
:100290009846C4444B46514343433604360C250C20
:1002A00024046544A4195918491920000CBC90462F
:1002B0009946F0BDF0B557464E464546DE46E0B598
:1002C000040083B00D00924699468B422FD82CD063
:1002D0004946504600F0AEF829000600200000F024
:1002E000A9F8331A9846203B9B4600D574E0534644
:1002F0005A4693401F005346424693401E00AF4269
:1003000029D826D05B46A41BBD41002B00DA79E03A
:10031000002200230092019301235A469340019347
:10032000012342469340009319E08242D0D9002233
:100330000023009201930C9B002B01D01C605D6098
:100340000098019903B03CBC90469946A246AB4642
:10035000F0BDA342D6D90022002300920193434668
:10036000002BE8D0FB0772081A4346467B080EE0D4
:10037000AB4201D1A2420CD8A41A9D4101202419FC
:100380006D410021013E24184D41002E06D0AB42A4
:10039000EED9013E24196D41002EF8D15B4600983C
:1003A000019900196941002B22DB2B005A46D340EA
:1003B0002A004446E2401C005B461500002B2CDB63
:1003C00026009E40330026004746BE403200801A79
:1003D000994100900191AEE7424620239B1A524674
:1003E000DA40414613004A468A4017001F4382E71D
:1003F000424620239B1A2A0046469A402300F34097
:100400001343D5E74246202300219B1A0022009186
:1004100001920122DA40019282E74246202326001F
:100420009B1ADE402F00B446974066463B0033439C
:10043000C9E7C04610B5002903D100F007F8203005
:1004400002E0081C00F002F810BDC0461C21012388
:100450001B04984201D3000C10391B0A984201D3A7
:10046000000A08391B09984201D30009043902A285
:10047000105C40187047C0460403020201010101EC
:100480000000000000000000FA210A4B70B589004E
:1004900005001868FFF738FE00F07AF80400012024
:1004A000002C05D102382200290000F037F8200086
:1004B00070BDC046040000204023084A10B51168F2
:1004C00000200B431360FFF7DFFF041E03D102F08F
:1004D00035FA200010BD0124FBE7C0460020024091
:1004E000024A1368013313607047C0467404002049
:1004F000014B18687047C0467404002070B50400B2
:10050000FFF7F6FF631C5A1E93410500E418FFF73E
:10051000EFFF401B8442FAD870BD000070B589011E
:10052000002814DA0F23C0B20340083B114A9B088D
:100530009B009B18032210409040FC321500114094
:1005400085408140DC69AC432143D96170BD0325FE
:1005500083082840A840FC352E00074A9B009B18C2
:10056000C02286402940814092009C58B4432143D8
:100570009950EBE700ED00E000E100E01F23184098
:100580001E3B8340014A13607047C04600E100E013
:10059000094A431E012093420DD8C021074A08484A
:1005A0005360036A09061B021B0A0B430362002007
:1005B0000723906013607047FFFFFF0010E000E02A
:1005C00000ED00E0F0B5534A0B688218541EA241BA
:1005D00085B00193002305320392019ADA4001D1DC
:1005E00005B0F0BD01259D40019A2A40009200D13E
:1005F0008DE04A6894461022644694432200013CF0
:10060000022A1FD107240F271C40A400A740DA08A4
:1006100092008218166ABE430F69A7403E431662D5
:1006200003245E00B4408268A243CC68B4402243F5
:1006300082606246D206D20F9A404468AC4322439D
:10064000426001E0012CEBD9032634005D00AC4090
:100650006246E4433240AA40076827403A430260BA
:10066000C26814408A68AA4014436246C460D2003B
:100670004DD50125284C0F27626B2A431D003540BC
:10068000AD00AF406263254A9C08A400A418A2688C
:10069000BA43A0270292FF050022B8420CD0204F97
:1006A0000132B84208D01F4F0132B84204D01E4F69
:1006B0003200B84200D0039AAA406746029D2A43FE
:1006C000A2601A4A009C1668009DE4433543FF036C
:1006D00001D435002540674615605668009D3543B6
:1006E000BF0301D435002540674655609668009DDC
:1006F0003543FF0201D43500254067469560D56833
:10070000009E2E43BF0201D425402E00D660013347
:1007100063E7C04600E4FFAF001002400000014064
:100720000004005000080050000C0050000401407C
:10073000F0B5374A85B082180191511E8A410023D5
:1007400005320392019ADA4001D105B0F0BD0122D1
:100750009A4094466146019A0A40009256D0032678
:10076000340059008C400268072522430260DA08F1
:1007700092008218116A1D4002910F210F00AD00F6
:10078000AF403D00E443029FAF4365461762826875
:10079000224082604268AA434260C2681440C4603A
:1007A0009A081C4C920012191C003440A400A1406D
:1007B00095680F000D40A021C9058C4600216045B9
:1007C0000FD015498C46012160450AD013498C464B
:1007D0000221604505D012498C463100604500D0A9
:1007E0000399A1408D4211D19168B943916000995C
:1007F0000C4AC94314680C40146054680C4054609F
:1008000094680C409460D4682140D160013399E72A
:1008100000E4FFAF00000140000400500008005059
:10082000000C00500004014000690840411E88414E
:10083000C0B27047002A01D0816170478162FCE735
:1008400043695940416170470C22184B10B5D96873
:100850000A40082A26D00C2A06D0042A1AD11B687E
:10086000DB0621D4124810BD8A021248120F825CA6
:100870000902D868890F0131C00304D50E485043DE
:10088000FFF742FCEFE71B68DB0601D50B48F6E7F4
:100890000748F4E780205B6800021B045B0F01330C
:1008A0009840E0E70448DEE70448DCE70010024037
:1008B0000024F400B62C000800127A0000093D0064
:1008C000F0B5050087B0002802D1012007B0F0BDC7
:1008D0000C23BE4CE668E2681E4080235B021A408F
:1008E00001920268D20741D42B689B0700D587E0AC
:1008F0002B68DB0628D5002E00D0D9E023689B05A5
:1009000002D5EB69002BE0D06268B1496B6A0A40FE
:100910001A43626061682A6A0902090A12060A43D8
:10092000626080225B0B013312029A401300E1687F
:1009300000200A06A749120F8A5CD340A64A13601A
:10094000FFF7A2FD0028C1D12B681B0700D5E6E008
:100950002B685B0700D508E12B689B0600D58DE16D
:10096000AB6A002B00D0BCE10020AFE7082E04D01A
:100970000C2E09D1019A002A06D023689B03B3D517
:100980006B68002BB0D1A0E76A689A4211D1226847
:1009900013432360FFF7ACFD070080222368920217
:1009A0001342A1D1FFF7A4FDC01B6428F5D9032091
:1009B0008CE7A021C9028A4205D180222168D20297
:1009C0000A432260E3E721688448014021602168EE
:1009D0000B400593059B824923680B402360002A46
:1009E000D8D1FFF785FD07008022236892021342C9
:1009F00000D179E7FFF77CFDC01B6428F4D9D6E766
:100A0000EA68042E04D00C2E25D1019B002B22D1A4
:100A100023685B0702D5002A00D156E761682B697D
:100A200070481B0201400B430921636023688B431C
:100A300013432360FFF708FFE368664A1B061B0F9A
:100A4000D35CD840644B18600020FFF71DFD0028E0
:100A500000D14DE73AE72368002A18D009218B43DB
:100A600013432360FFF744FD070004222368134269
:100A700007D062682B695B491B020A40134363601D
:100A800036E7FFF735FDC01B0228EED98FE70122BC
:100A900093432360FFF72CFD0700042223681342D1
:100AA00000D125E7FFF724FDC01B0228F5D97EE71A
:100AB000EB69002B20D0802322685B001343236066
:100AC000FFF716FD070080222368920013420DD025
:100AD00063683F4A13406A6A1343636062682B6A23
:100AE00012021B06120A134363602DE7FFF700FD95
:100AF000C01B0228E7D95AE723683B4A134023600A
:100B0000FFF7F6FC0700802223689200134200D111
:100B10001AE7FFF7EDFCC01B0228F4D947E76A6922
:100B20000123002A10D0226D13432365FFF7E0FC58
:100B300007000222236D134200D009E7FFF7D8FC1B
:100B4000C01B0228F5D932E7226D9A432265FFF7D0
:100B5000CFFC07000222236D134200D1F8E6FFF715
:100B6000C7FCC01B0228F5D921E780230021A26B16
:100B70005B0501911A4204D1A26B1343A3630123C5
:100B800001938022194F52003B68134208D0802203
:100B9000AB68520093422BD1226D134323654CE086
:100BA00080223B68520013433B60FFF7A1FC802387
:100BB0005B00029003933B68039A1342E7D1FFF76F
:100BC00097FC029BC01A6428F5D9F0E60010024099
:100BD000FF1FFFFFA62C000804000020FFFFFEFF00
:100BE000FFFFFBFFFFE0FFFFFFFEFFFF0070004085
:100BF000002B16D1236D6A4A13402365236D694A81
:100C000013402365FFF774FC07008022236D9200D8
:100C100013422AD0FFF76CFC634BC01B9842F4D9F7
:100C2000C5E6A021C9008B420BD18023216DDB00DA
:100C30000B432365236D1A432265FFF759FC070018
:100C40000EE0236D564A13402365236D554A134029
:100C5000A4E7FFF74DFC544BC01B984200D9A6E611
:100C60008022236D92001342F3D0019B012B00D010
:100C700072E6A36B4D4A1340A3636DE6A969012395
:100C80004B4A002918D0A1681943A160616B0B433E
:100C900063638023116A9B010B431362FFF728FCF7
:100CA00007000222A368134200D059E6FFF720FC98
:100CB000C01B0228F5D97AE6A1689943A160136A9E
:100CC0003C490B401362FFF713FC07000222A368A4
:100CD000134200D144E6FFF70BFCC01B0228F5D9F4
:100CE00065E60C2E43D0344A022B2ED12368802691
:100CF00013402360FFF7FCFB0700B6042368334270
:100D00001DD1296BEB6AE2680B432C490A4013435F
:100D10006A6B80251343E360802322685B041343DE
:100D20002360FFF7E5FB0600AD0423682B4200D0EB
:100D30001AE6FFF7DDFB801B0228F6D937E6FFF73E
:100D4000D7FBC01B0228D9D931E623688025134080
:100D50002360FFF7CDFB0600AD0423682B4200D1D2
:100D600002E6FFF7C5FB801B0228F6D91FE68022AA
:100D7000E368E96A52021A4001208A4200D0A5E5E0
:100D8000F022296B92031A408A4200D09EE5C020CF
:100D900000040340686B181A431E9841C0B295E5E1
:100DA000FFFEFFFFFFFBFFFF88130000FFFFFFEFC9
:100DB00000000140FFDFFFFFFFFFFFFEFFFF02FF1C
:100DC000F7B5061E019101D10120FEBD0122514C53
:100DD0000199236813408B4227D3326893072FD49D
:100DE000D30735D40123226801991A40914200D2D9
:100DF00081E03268484C530700D584E0130706D5DC
:100E0000E26833694549DB000A401343E360FFF7BA
:100E10001BFDE368424A1B061B0FD35CD840414BC5
:100E200018600020FFF730FBCFE723680199934358
:100E30000B43236023681340019A9A42C4D1CCE744
:100E4000F0203549CB688343B0680343CB60C7E7E4
:100E5000314D72682B68022A19D19B03B4D5032146
:100E6000EB688B431343EB60FFF742FB73680700AB
:100E7000022B19D10C22EB681340082BB2D0FFF7DC
:100E800037FB294BC01B9842F4D903209DE7032A66
:100E900002D19B01E3D497E7012A02D15B07DED49C
:100EA00092E79B05DBD48FE7032B0BD10C22EB6879
:100EB0001340934296D0FFF71BFB1B4BC01B98427D
:100EC000F4D9E2E7012B10D00C22EB68134289D051
:100ED000FFF70EFB144BC01B9842F5D9D5E7FFF77F
:100EE00007FB114BC01B9842CFD80C22EB68134074
:100EF000042BF4D176E722689A43226022681A42D2
:100F000000D061E775E7E36808490B40F1680B43DF
:100F1000E36073E70020024000100240FFC7FFFFBC
:100F2000A62C00080400002088130000FFF8FFFF33
:100F30008223F7B502681B0105001A4247D08023BF
:100F400000215F4C5B05A26B00911A4204D1A26B99
:100F50001343A3630123009380275A4E7F00336815
:100F60003B426DD06968C022080023689203134099
:100F70001040834203D1A8680240934209D0C023A5
:100F80000A009B021A409A4203D1236801209B0366
:100F900066D4C022236D9202134062D16968C023D7
:100FA0000A009B021A409A4207D123684648034030
:100FB000C020800301400B432360236D1A43009B34
:100FC0002265012B03D1A36B404A1340A3632B6816
:100FD000DA0706D503203A49CA6C8243E86802431F
:100FE000CA649A0706D50C203549CA6C8243286921
:100FF0000243CA645A0706D531493548CA6C0240D3
:1010000068690243CA641A0706D52D493148CA6C7B
:101010000240A8690243CA645A0606D528492E48E8
:10102000CA6C0240286A0243CA6400201B0617D516
:10103000234A2A49D36C0B40E9690B43D3640FE080
:1010400033683B433360FFF753FA019033683B4208
:1010500088D1FFF74DFA019BC01A6428F6D9032006
:10106000FEBD11408B4202D02968890608D4A968C8
:101070000A40934200D191E72B681B0500D48DE70D
:101080008022216D206D120302432265226D144BD4
:1010900014480B40024022652365CB0500D47DE750
:1010A000FFF726FA80270600BF00236D3B4200D0E1
:1010B00074E7FFF71DFA0C4B801B9842F5D9CEE779
:1010C0000010024000700040FFFFCFFFFFFFFFEF66
:1010D000FFF3FFFFFFCFFFFFFFFFFFFBFFFFF3FF6C
:1010E000FFFFFCFFFFFFF7FF88130000F8B50400C7
:1010F0000D001700802623689868304031D06A1CA4
:10110000FAD0FFF7F5F9C01B8542F4D8E021236837
:101110005A688A435A6082226168520091420CD117
:101120008021A26809028A4203D08021C9008A4234
:1011300003D140211A688A431A608021A26A89017A
:101140008A4206D1196807480140196019680A43A4
:101150001A602300012251331A70002303205034F7
:101160002370F8BDFFDFFFFF10B50400FFF7BEFFDF
:10117000002804D020230320626D1343636510BD53
:101180007047000070B504000120002C37D0002308
:101190002500A36251352B78DBB2002B05D122004C
:1011A000503213702000FFF7EBFF0223402221682A
:1011B0002B700B68A06893430B606368A2690343BC
:1011C000E06803432069034360690343E069034324
:1011D000206A0343A06A0343802080001040034339
:1011E0000B600423120C1A40636A00201A434A6001
:1011F000CB69034A1340CB61012360652B7070BD3E
:10120000FFF7FFFFF0B51F00030085B001925033D8
:101210001A7804000E000225012A00D19BE0012269
:101220001A70FFF765F92300009051331B7861684D
:10123000DBB2012B0BD082225200914200D083E01E
:10124000A268002A00D07FE0042B00D07CE00125BA
:10125000002E00D178E0019B002B75D0002F73D0B9
:10126000230051331A78042A01D005221A70002372
:10127000019A6365A2634022236463642368E7875D
:10128000E7861868A7872663A786104202D11868E8
:1012900002431A608022E068120190425ED1002968
:1012A00001D0012F07D132880236DA60E38E26633F
:1012B000013B9BB2E386012502272E00E38E002B23
:1012C00015D1E38F002B12D1009A0A992000FFF765
:1012D0004BFF051E00D087E0A368002B34D12368A4
:1012E0000390DA6803929B680393039B2CE02268C7
:1012F00093683B420ED0E38E002B0BD0012D09D119
:101300000025236B19880233D1602363E38E013BF0
:101310009BB2E386936833420CD0E38F002B09D055
:101320003500D268A36B1A800233A363E38F013BBD
:101330009BB2E387FFF7DCF8009BC01A0A9B83424D
:10134000BCD80133BAD003252300012251331A70CF
:10135000002350342370280005B0F0BD002901D0CF
:10136000012F08D132781A73236B01332363E38E84
:10137000013B9BB2E386012502272E00E38E002B62
:1013800002D1E38F002B9FD023689A683A420FD096
:10139000E28E002A0CD0012D0AD10025226B127892
:1013A0001A73236B01332363E38E013B9BB2E38605
:1013B00023689A6832420DD0E28F002A0AD03500A5
:1013C000DB68A26B1370A36B0133A363E38F013B54
:1013D0009BB2E387FFF78CF8009BC01A0A9B8342FD
:1013E000CCD80133CAD0AEE7202301256365ABE733
:1013F00051300078C0B27047F0B507278DB003AE0A
:1014000004AD06AC30707170B27000213A00280053
:10141000019301F036FB18220021200001F031FB7E
:101420003F2323804B3363800021873B2000A6604D
:10143000E3602561676100F03BFBFF22002810DBC1
:101440002A78002A0DD12B6801991B0A0B802B7971
:10145000E9781B020B4312990B806B6813991B0AE6
:101460000B8010000DB0F0BDF0B50E0097B00193E9
:101470001CAB1B7803AF02931DAB1D781FAB1C7810
:1014800002AB991D3A802A190E8042231A2A4FDC9A
:101490000CAE3070292002AB0222C01801F0E8FA2D
:1014A0002B2002AB39000222C01801F0E1FA6B4692
:1014B0001B792A0073716B461B7A1E990EA8B371B3
:1014C000F57101F0D5FA2B0009350833DBB2EDB226
:1014D000F45422006419E4B22099701901F0C8FA9A
:1014E0003019022221A901F0C3FAA01CC0B206AF34
:1014F000022222A9301801F0BBFA1822002138007C
:1015000001F0BFFA04343F23E4B2FC600F243B80B7
:1015100044337B8002ABE4180123002138007B6157
:10152000BE603C6100F0C4FAFF23002800DB237892
:10153000180017B0F0BD8C46F0B591B01F0016AB87
:101540001E7817AB1D7819AB1B7809AC0193634665
:1015500020701E20637002AB1100C018102201F031
:1015600087FA5821312202ABD2185B181B782575F7
:101570001370189B03AD1B0A5370189B00211B0CA2
:101580009370189B28001B0ED3706B461B79182292
:101590006376A774E67401F074FA3F232B80473317
:1015A0006B806C3BEB6002ABAC60DC1C0123002168
:1015B00028006B612C6100F07BFAFF23002800DB20
:1015C0002378180011B0F0BD70B5422390B005002B
:1015D0001F2821D808AE02003070212002AC6844D8
:1015E00001F046FA18220021200001F04AFA3F23B8
:1015F00023804F3363806B460135EDB2E560DD1D1E
:101600000123002120006361A660256100F050FAEB
:10161000FF23002800DB2B78180010B070BD30B518
:1016200089B002AC18220021200001F02AFA3F23E1
:1016300023800223FF3363806B46DD1D01230021DD
:1016400020006361256100F033FAFF23002800DBEE
:101650002B78180009B030BDF0B58DB001AF160081
:101660001C0038700225012800D00E356B462A0078
:10167000581D01F0FDF96B1CFE540326AB1CFC54F5
:10168000320006AC0021684601F0FBF91822002167
:10169000200001F0F6F93F232380C33363806B46BB
:1016A000AD19002120002361A760E560666100F0AC
:1016B000FFF9FF23002807DB6B461B78002B03D1C3
:1016C000009A1299120A0A8018000DB0F0BDF0B508
:1016D00093B01F0018AB1E7819AB1B780BAD0093AD
:1016E0001AAB1B78944601931BAB1B78288002939E
:1016F0001CAB1B78A97003930224012900D00E347F
:101700001F2004AB61462200C01801F0B1F96A46FF
:10171000E31CEF541278231DEE54631DEA546A460D
:101720001279A31DEA546A46127AE31DEA546A4606
:101730000327127B013305AEEA5400213A0004A8C6
:1017400001F09FF918220021300001F09AF93F239F
:101750003380C5337380093404AB0021300033611A
:10176000B560F460776100F0A3F9FF23002807DB80
:1017700004AB1B78002B03D1049A1D99120A0A802E
:10178000180013B0F0BD70B51D00A8B042237A2D2B
:1017900025DC08AE3080262002AC718032712C9995
:1017A0002A006844757101F063F9182200212000B5
:1017B00001F067F93F232380C73363806B4606350A
:1017C000EDB2E560DD1D0123002120006361A6600C
:1017D000256100F06DF9FF23002800DB2B7818004D
:1017E00028B070BD30B589B002AC01AD2880182298
:1017F0000021200001F045F93F2323802823FF33F7
:101800006380263BFF3BE3606B46A560DD1C012344
:10181000002120006361256100F04AF9FF230028C0
:1018200000DB2B78180009B030BD70B542230D00E5
:10183000A8B011007E2D22DC08AE3070222002AC50
:101840002A006844757001F013F918220021200065
:1018500001F017F93F232380333B63806B46023549
:10186000EDB2E560DD1D0123002120006361A6606B
:10187000256100F01DF9FF23002800DB2B781800FC
:1018800028B070BD30B589B002AC01AD2870697068
:1018900018220021200001F0F4F83F232380303B80
:1018A00063800D3BE3606B46A560DD1C01230021D6
:1018B00020006361256100F0FBF8FF23002800DBB6
:1018C0002B78180009B030BDF0B50A270E25092283
:1018D00085B06F446D4406000C00009503AB6A446C
:1018E000390002A800F02CF8C0B200280BD10F215B
:1018F0003B881A0A32702A881B0211400B43F021E0
:101900000A401343238005B0F0BD30B589B002AC66
:1019100018220021200001F0B4F803232380638003
:101920006B46DD1D0123002120006361256100F06D
:10193000BFF8FF23002800DB2B78180009B030BD6A
:10194000F0B509268FB005AC08AD019102920021D7
:10195000320007002000039301F093F818220021C1
:10196000280001F08EF8042300212B802800033B7F
:101970006B802C616E6100F09BF80300FF20002B50
:1019800014DB2078002811D16378019A3B706388BA
:1019900013802379029A13706368039A1B0A1380D9
:1019A000237AE2791B021343149A13800FB0F0BD1F
:1019B00070B5060090B008AD20220C002800002170
:1019C00001F05FF82E70321C1F2E00D91F2221203B
:1019D0002100D2B202AC684401F04AF8182200217A
:1019E000200001F04EF80823238001336380173371
:1019F000E3606B46A560DD1D0123002120006361CB
:101A0000256100F055F8FF23002800DB2B78180033
:101A100010B070BD13B50400200000F06CF9002870
:101A200000D013BD01A9200000F0A5F901990248DA
:101A300000F06CF9F0E7C0468004002070B5002883
:101A400001D0104BD86100F0A7FA0F4D280000F02C
:101A50004FF90E4800F04CF9AF230D4C9B00E618EF
:101A6000210028008C3400F05DF9B442F8D1054C17
:101A70002368002B01D000209847A368002B00D0DA
:101A8000984770BD88000020780400208004002062
:101A9000A8000020054B02681A60C268DA6002697B
:101AA0001A6182699A6182689A6070478800002092
:101AB000F0B54388A7B00093038804000193002386
:101AC00004A80F00039300F013F95D4D280000F007
:101AD00064F901285BDD638822889B0592029B0DD7
:101AE0001343012206AE327002A910325218257B30
:101AF0009BB213701B0A5370A168F5702A0007A8E7
:101B000000F0B6FF4F4B1B69002B02D0291D30009F
:101B10009847002087427ED1009B9D05019BAD0D1B
:101B20009B021D43ADB2FEF7E3FC0700FEF7E0FCAD
:101B3000FA23C01B9B00984251D8434E300000F05E
:101B4000DAF80028F2D103A9300000F002F9039B73
:101B50001A7A042A09D11A0088321278597AD01ECA
:101B60000F292ED01CD80E2957D0354F380000F041
:101B7000C2F8002861D0300000F0BDF800285CD029
:101B80003800039900F0CEF800230393CBE706A9B1
:101B90002D4800F0DEF80699280000F0C3F894E71D
:101BA00010291CD03E29E0D1D97A60688142DCD16D
:101BB0006169043A8A4200D90A00626120690C33E3
:101BC00039E019000B31CA788F7812023A439542F6
:101BD00005D162680F2A0ED0DB7A002BC5D003999D
:101BE000002902D0164800F091F804A8FFF712FF70
:101BF000012040420FE06269824200D90200206960
:101C0000626100F035FF03990D4800F07FF804A8E9
:101C1000FFF700FF002027B0F0BD597B1E7B0902B3
:101C200031438D42DBD16169063A8A4200D90A000C
:101C3000206962610E331900E3E7039904A8A1E764
:101C4000780400208800002080040020002313B5C1
:101C500001930B4C200000F04EF8002800D013BD7B
:101C600001A9200000F075F8064BDB69002B02D0BB
:101C70000198083098470199034800F053F8E8E7C5
:101C8000800400208800002078040020002313B581
:101C9000144C0193200000F02EF800281DD101A95A
:101CA000200000F056F8104BDB68002B15D001988F
:101CB000802108309847C3B20199002B0ED00A004A
:101CC000883213700B7A042B08D1C0B28B7A033898
:101CD000834203D1054800F025F813BD200000F031
:101CE00015F8FAE77804002088000020800400201E
:101CF000006040607047EFF3108372B60268101AFC
:101D000041424141C8B283F310887047EFF310831A
:101D100072B6026848600A6001600A68516083F325
:101D200010887047EFF3108372B6426808604A600B
:101D300041604A68116083F310887047EFF31083A5
:101D400072B601684268116001684A6083F31088C6
:101D5000704770B50D00EFF3108472B603680B6026
:101D60000068FFF7EBFF00232A6813602A685360BE
:101D700084F3108870BD70B50D00EFF3108472B657
:101D800043680B604068FFF7D9FF00232A6813609F
:101D90002A68536084F3108870BDEFF3108172B627
:101DA00000230268824203D181F310881800704733
:101DB00001331268F6E7000070B50125A026002463
:101DC000144B86B0DA6AF6052A43DA62DB6A01A9A7
:101DD0002B400093009B104B30000293019503941D
:101DE000FEF7F0FB802301A95B0030000193029510
:101DF00003940494FEF7E6FB022301A9300001934B
:101E0000029503940494FEF7DDFB00F013FD06B089
:101E100070BDC046001002400000111010B5A02493
:101E2000E40520000121FEF783FC20000221FEF7DB
:101E30007FFC802120004900FEF77AFC002010BDC5
:101E400070B58025A0246D00E40529000022200043
:101E5000FEF7F0FC0520FEF751FB290001222000CF
:101E6000FEF7E8FC0520FEF749FB002070BDF0B549
:101E700089B000250190FF23A02002AA04AC937131
:101E8000C005F43B2A0006AE0F00022123706570E6
:101E9000A570E5702571FEF7CDFC2000052231000C
:101EA00000F094FC33782C00022B0DD13279F378BA
:101EB00012021343AB4207D01E1CBB4200D93E1C8A
:101EC0000024B6B2B44208D3A02001220221C005EA
:101ED000FEF7B0FC200009B0F0BD02ABDD1D012211
:101EE000981D290000F072FC2B78019A13550134DB
:101EF000E4B2E7E70A23F0B587B002AA1370002323
:101F000001900E0053709370D3701371FEF7F0FAC6
:101F100002270090A020012400223900C00504AD52
:101F2000FEF788FC0522290002A800F04FFC2B7860
:101F30006442022B08D16B78B34216D332000E49AB
:101F4000019800F043FC0024A02001223900C005C4
:101F5000FEF770FCFEF7CCFA009BC01A0F2807D8DA
:101F6000002CD7D1200007B0F0BD02246442EBE77B
:101F700003246442F6E7C0466403002010B5A024A1
:101F8000E40501212000FEF74FFC012800D010BD20
:101F90000020FFF77BFEF4E710B5124B88B00193E9
:101FA000114B01A80293114B0593114B0493114B54
:101FB0000393114B0793FFF76DFDC0210F4CC9042C
:101FC000200000F0A2FC0E4A0021200000F096FC48
:101FD000002205201100FEF7A1FA0520FEF7CEFA37
:101FE00008B010BDB91D00081D1E0008F51E000830
:101FF0006F1E0008411E0008F52700088804002015
:102000007D1F000870B516000C000500FEF770FA81
:10201000A419201800F03EFD2C006E1D00F068FD94
:1020200020700134A642F9D1D0236B7170BD00003D
:1020300013B51D4B1D4C002221896088009303239A
:10204000FFF7A1FB021E2CD1194B61896088009318
:102050000323FFF798FB021E23D1164B618A608889
:1020600000930423FFF78FFB021E1AD1124BE18964
:10207000608800930423FFF786FB021E11D10F4BEB
:10208000218A608800930323FFF77DFB021E08D19D
:102090000B4BA189608800930423FFF774FB002891
:1020A00000D0472016BDC046AC040020C604002066
:1020B000AD040020B4040020B0040020B2040020CD
:1020C000AE04002070B50A2592B009AE2A0024495A
:1020D000300000F0CDFC0223742200210CAC2370F0
:1020E000DB18A3700533237143336371053BA37180
:1020F0000C33E371253B2372237302336373293B53
:10210000A373F8336272E373123A164BA272313A38
:10211000E2721A786570E57022745A780800627469
:102120009A78A274DA78E2741A7922755B79637509
:10213000FFF73EFC0020F022C8210123D2000690C8
:10214000059004900390029601950090C900FFF756
:102150008BF921001620FFF737FA12B070BDC04688
:10216000982C00089004002010B5324C2378002BE6
:1021700003D0FFF7A7FF00232370002000F0B6FB79
:102180002D4B1B68002B52D0FEF7B2F900F082FCF9
:102190002A4C2378012B4BD10023237000F0A8FC9C
:1021A0000A220023C117FEF75BF8254A0023FEF739
:1021B00037F80F30607000F09BFC28220023C11715
:1021C000FEF74EF81E4A0023FEF72AF8F5239B007F
:1021D000C018208100F08CFC14220023C117FEF7E8
:1021E0003FF8174A0023FEF71BF89130FF30A0801C
:1021F00000F07EFC64220023C117FEF731F8104A7C
:102200000023FEF70DF8A07100F072FCC822002335
:10221000C117FEF725F80A4A0023FEF701F814302B
:102220006080FFF705FFFA204000FEF767F910BD58
:102230000123B2E700000020A8040020AC04002025
:10224000FFFFFF7F10B5FFF78FFFFFF7FFFC10BD0B
:102250009C23AA49F0B54B7045238B703B3BCB7058
:1022600080230B71333B4B717E238B718623CB71A3
:102270006D330B72B13B4B723D3B8B72C533CB72EE
:10228000D523A1270B7319334B73B83B8B7347339B
:10229000CB739B4B87B00F70012200930220132356
:1022A000FFF7DAF9031E00D025E15322954C83266F
:1022B00022700A3262703E22A270C132E270473A46
:1022C0006271523AA2719522E271173A2272482243
:1022D00062727822A272CB22E2722B322273A03A6F
:1022E00062734D3AA273BC32E273874A26715088FA
:1022F000864A1025059204220493029201930395C5
:102300000333009522000221FFF7E1F9031E00D0FC
:10231000F1E020222270093A6270083AA2708D32F0
:10232000E27016222271D73262716C3AE271343A4D
:1023300062724322E272A8322273BA3AA273B322C3
:10234000A6712772E2739F3F6F4A1D36A6726773AC
:1023500050886F4A0493059204220193029203333A
:102360000395009522003900FFF7B1F9031E00D054
:10237000C1E077222270013262704F22A2703F3298
:10238000E2707B2222717E3262715C3AA2710A3A5B
:10239000E27124322272472262727A32A2722832A9
:1023A0002273142262739C32A273453AE273564A36
:1023B000E6725088574A04930592042201930292D0
:1023C00013000395009522003900FFF780F9031EE2
:1023D00000D090E02C222270CE326270EE3AA270D1
:1023E0002632E2702C3A22714B2262715F32A27166
:1023F0008F22E2712D322272763A62727932A272A3
:102400000E32E27252192273133A62731F22A273C0
:102410002F32E2733C4A390050883F4A04930592B8
:102420000422019302921300039500952200FFF706
:102430004EF9031E5FD18E2222700A22A270192249
:10244000E270783222710632A2711332E271B72241
:102450002272442262724732A2721B32E27213323B
:1024600022731C2262731532A2734E226670E273CD
:102470000536254A66715088284A0493059204223D
:102480000193029203330395009522003900FFF770
:102490001EF9031E2FD1AA2222705D22A270B9223A
:1024A000E2708C2222713B326271C13AA271902299
:1024B000E271303A2272183A62727322A272763254
:1024C000E272992222731B3A62736B22A273662214
:1024D000E2730D4A66705088114A049305920422F3
:1024E0000193029213000395009522003900FFF733
:1024F000EEF8002800D0472007B0F0BDB604002059
:10250000C804002096040020C6040020CE04002049
:10251000D0040020D2040020D4040020D6040020DF
:10252000D804002030B51625152487B0002000F00F
:10253000BBF96C44002128486D44FFF77FFA29005D
:102540002000FFF7C1F9FFF7E0F96420FDF7D6FF9F
:102550002178224C2A882000FFF754FD2200062112
:102560000020FFF762F9002800D0FEE7FFF757F8D8
:10257000011E00D0FEE71A4B1A4C01931A4B03229E
:10258000009301202300FEF737FF021E00D0FEE774
:10259000164BA188208800930323FFF7F4F8011E4F
:1025A00000D0FEE7124B0124029310230190009308
:1025B00002000394093B2000FEF7BDFF002800D075
:1025C000FEE7FFF745FE002800D0FEE707212000C8
:1025D000FFF758F907B030BD292600089004002005
:1025E000CC040020C6040020CA040020A22C00084D
:1025F00040E2010000230121034A1360034A1170E5
:10260000034A13707047C046A80400200000002051
:1026100066040020034B10B51888002801D0FFF78E
:10262000E1F810BD64040020037810B5042B08D134
:1026300043783E2B06D0FF2B10D0052B01D1FFF79E
:10264000D9FF10BDC278012AFBD1837941791B02E1
:102650000B430A490A600A4A1380F2E70379C278F9
:102660001B021343074A9342EBD1C3790530C0786C
:1026700000021843FFF7CEFFE3E7C046A80400209E
:1026800064040020140C000010B59CB03822002116
:102690000EA800F0F6F914220021684600F0F1F9C6
:1026A0002422002105A800F0ECF91349134A0B6815
:1026B00000241A4080231B0113430B6010230E9348
:1026C0000F3B1593A0230EA81B0217931694189482
:1026D000FEF7F6F80F232100684600930194029458
:1026E00003940494FEF76CFB022305A80593099458
:1026F000FEF71EFC1CB010BD00700040FFE7FFFF9E
:1027000070B58AB0FDF7D8FEFFF7BEFF1422002196
:1027100005A800F0B6F90420284B0125D96A9126B6
:102720000143D962DA6A760002400192019AD96ABD
:102730007C300143D9620221DA6A00240240A020E1
:102740000292029ADA6AC0052A43DA62DA6A2A40F9
:102750000392039ADA6A0A43DA62DB6A00220B40C8
:1027600004933100049BFEF765F880239B010593D9
:10277000134B05A9134806930794FDF723FFA020E8
:10278000114B05A9C005069305950794FDF71AFF9F
:10279000A02005A9C0050596069507940894FDF7A5
:1027A00011FF220021000520FDF7B8FE0520FDF7EE
:1027B000E5FEFFF7B7FEFFF745FDFCE7001002401E
:1027C000000021100008005000001110FA2313B57A
:1027D0009B001400009313000A0001000448FEF758
:1027E00011FD002801D1200016BD06204042FBE764
:1027F000DC04002010B5FDF77BFE10BD0C4B10B5BE
:10280000036082235B004360802200239200836088
:10281000C36003614361C361036243628362073340
:10282000C3628261FEF7AEFC431E9841C0B210BD88
:1028300000300140F0B5184D184B87B028002B60D0
:10284000FEF7D6FD041E02D0002007B0F0BD8023A5
:10285000134A5B01516B02270B43536303900590AE
:10286000A020C023032601A9C00501930297049666
:10287000FDF7A8FE08230B4801A9019302970394D2
:1028800004960594FDF79EFE2800FFF7B7FF002889
:10289000DAD008204042D8E7DC04002000300140B4
:1028A0000010024000040050012330B5A024202570
:1028B0000D4A87B0D16AE4051943D162D26A01A9F1
:1028C0001A400092029303932000DB18009A0493AD
:1028D0000195FDF777FE200000222900FDF7AAFFF1
:1028E000002007B030BDC04600100240A02010B547
:1028F000C0052021FDF7A4FF002010BD002902D152
:102900004260080070470120FCE70123002801D045
:1029100000230160180070471F22036810B51A4099
:1029200001239340044A5169194204D0536143681A
:10293000002B00D0984710BD000401400122054B38
:10294000596B0A435A638022996B52050A439A6372
:102950007047C046001002407047FEE7704770475E
:1029600010B5FDF7BDFD10BD10B50248FFF7D4FF4F
:1029700010BDC046880400208022104B5200196808
:102980000A431A60DA680E490A40DA601A680D498B
:102990000A4001211A609A688A439A601A680A49B3
:1029A0000A401A60DA6809490A40DA6000221A61AE
:1029B0008022074B12059A607047C0460010024003
:1029C0000C40FF88F6FFF6FEFFFFFBFFFFFF02FF54
:1029D00000ED00E00D488546002103E00C4B5B58FC
:1029E000435004310B480C4B42189A42F6D30B4A21
:1029F00002E0002313600432094B9A42F9D3FFF737
:102A0000BBFF00F011F8FFF77BFEFEE7002000207F
:102A1000D02C0008000000206C0000206C0000207A
:102A200038050020FEE7000070B500260C4D0D4C67
:102A3000641BA410A64209D1002600F021F90A4D1A
:102A40000A4C641BA410A64205D170BDB300EB581C
:102A500098470136EEE7B300EB5898470136F2E7A6
:102A6000C82C0008C82C0008C82C0008CC2C000872
:102A7000002310B59A4200D110BDCC5CC454013380
:102A8000F8E703008218934200D1704719700133B0
:102A9000F9E70000104B70B51C680500A36B002B14
:102AA00015D1182000F060F80C4BA06303800C4B8C
:102AB000012243800B4B83800B4BC3800B4B038164
:102AC0000523438106338381002302614361002291
:102AD000A36B1D615A6170BD080000200E33000019
:102AE000CDABFFFF341200006DE6FFFFECDEFFFF11
:102AF000154B10B51C68A36B002B15D1182000F0E6
:102B000033F8124BA0630380114B01224380114B19
:102B10008380114BC380114B03810523438106330E
:102B20008381002302614361A46B0D4A20696169BE
:102B30000C4BFDF795FB01220023801859412061C1
:102B400061614800400810BD080000200E330000FD
:102B5000CDABFFFF341200006DE6FFFFECDEFFFFA0
:102B60002D7F954C2DF4515810B5034B010018687A
:102B700000F004F810BDC04608000020032370B523
:102B8000CD1C9D43083506000C2D1ED20C25A942F4
:102B90001DD8300000F062F8254A14682100002991
:102BA00019D1244C2368002B03D1300000F044F8E5
:102BB00020602900300000F03FF8431C2CD10C238A
:102BC0003000336000F04BF803E0002DDFDA0C2317
:102BD0003360002070BD0B685B1B1AD40B2B03D92C
:102BE0000B60CC18256003E08C420ED16368136043
:102BF000300000F034F8200007220B30231D9043F2
:102C0000C31AE7D05A42E250E4E74B6863600C0015
:102C1000EEE70C004968C2E70323C41C9C43A042B2
:102C2000E0D0211A300000F007F8431CDAD1C6E7E3
:102C3000680400206C040020002370B5064C0500D9
:102C40000800236000F00CF8431C03D12368002B1C
:102C500000D02B6070BDC04634050020704770471F
:102C6000054B02001968002901D104491960186850
:102C700082181A607047C046700400203805002092
:102C8000F8B5C046F8BC08BC9E467047F8B5C046CB
:082C9000F8BC08BC9E46704729
:102C9800094C47532E7462312E304C4753000000C4
:102CA80000000000000001020304060708090304ED
:082CB80006080C101820300082
:082CC000F4D5FF7F01000000C4
:042CC800E900000817
:042CCC00C10000083B
:102CD00001000000000020000C00002000000000A7
:102CE00000000000000000000000000000000000E4
:102CF00000000000000000000000000000000000D4
:102D000000000000000000000000000000000000C3
:102D100000000000000000000000000000000000B3
:102D200000000000000000000000000000000000A3
:0C2D300000000000000000000000000097
:04000005080029D5F1
:00000001FF
